{
  "_format": "hh-sol-artifact-1",
  "contractName": "PointHub",
  "sourceName": "contracts/PointHub.sol",
  "abi": [
    {
      "inputs": [
        {
          "internalType": "uint256",
          "name": "contributorId",
          "type": "uint256"
        },
        {
          "internalType": "uint256",
          "name": "repoId",
          "type": "uint256"
        },
        {
          "internalType": "uint256",
          "name": "pointsAwarded",
          "type": "uint256"
        }
      ],
      "name": "acceptContribution",
      "outputs": [],
      "stateMutability": "nonpayable",
      "type": "function"
    },
    {
      "inputs": [
        {
          "internalType": "address",
          "name": "",
          "type": "address"
        }
      ],
      "name": "addressToUserId",
      "outputs": [
        {
          "internalType": "uint256",
          "name": "",
          "type": "uint256"
        }
      ],
      "stateMutability": "view",
      "type": "function"
    },
    {
      "inputs": [
        {
          "internalType": "uint256",
          "name": "ownerId",
          "type": "uint256"
        },
        {
          "internalType": "uint256",
          "name": "repoId",
          "type": "uint256"
        },
        {
          "internalType": "uint256",
          "name": "descriptionId",
          "type": "uint256"
        }
      ],
      "name": "contribute",
      "outputs": [],
      "stateMutability": "nonpayable",
      "type": "function"
    },
    {
      "inputs": [
        {
          "internalType": "uint256",
          "name": "nameId",
          "type": "uint256"
        },
        {
          "internalType": "uint256",
          "name": "descriptionId",
          "type": "uint256"
        },
        {
          "internalType": "uint256",
          "name": "cost",
          "type": "uint256"
        }
      ],
      "name": "createRepo",
      "outputs": [],
      "stateMutability": "nonpayable",
      "type": "function"
    },
    {
      "inputs": [],
      "name": "createUser",
      "outputs": [],
      "stateMutability": "nonpayable",
      "type": "function"
    },
    {
      "inputs": [
        {
          "internalType": "uint256",
          "name": "userId",
          "type": "uint256"
        },
        {
          "internalType": "uint256",
          "name": "repoId",
          "type": "uint256"
        }
      ],
      "name": "getContributedRepo",
      "outputs": [
        {
          "internalType": "uint256",
          "name": "nameId",
          "type": "uint256"
        },
        {
          "internalType": "uint256",
          "name": "descriptionId",
          "type": "uint256"
        },
        {
          "internalType": "uint256",
          "name": "firstContributionAt",
          "type": "uint256"
        },
        {
          "internalType": "uint256",
          "name": "totalContributions",
          "type": "uint256"
        },
        {
          "internalType": "uint256",
          "name": "totalPointsAwarded",
          "type": "uint256"
        }
      ],
      "stateMutability": "view",
      "type": "function"
    },
    {
      "inputs": [
        {
          "internalType": "uint256",
          "name": "userId",
          "type": "uint256"
        },
        {
          "internalType": "uint256",
          "name": "repoId",
          "type": "uint256"
        }
      ],
      "name": "getCreatedRepo",
      "outputs": [
        {
          "internalType": "uint256",
          "name": "nameId",
          "type": "uint256"
        },
        {
          "internalType": "uint256",
          "name": "descriptionId",
          "type": "uint256"
        },
        {
          "internalType": "uint256",
          "name": "createdAt",
          "type": "uint256"
        },
        {
          "internalType": "uint256",
          "name": "totalContributions",
          "type": "uint256"
        },
        {
          "internalType": "uint256",
          "name": "totalPointsAwarded",
          "type": "uint256"
        }
      ],
      "stateMutability": "view",
      "type": "function"
    },
    {
      "inputs": [],
      "name": "getMyContributedRepoIds",
      "outputs": [
        {
          "internalType": "uint256[]",
          "name": "",
          "type": "uint256[]"
        }
      ],
      "stateMutability": "view",
      "type": "function"
    },
    {
      "inputs": [],
      "name": "getMyCreatedRepoIds",
      "outputs": [
        {
          "internalType": "uint256[]",
          "name": "",
          "type": "uint256[]"
        }
      ],
      "stateMutability": "view",
      "type": "function"
    },
    {
      "inputs": [
        {
          "internalType": "uint256",
          "name": "userId",
          "type": "uint256"
        },
        {
          "internalType": "uint256",
          "name": "repoId",
          "type": "uint256"
        }
      ],
      "name": "getPointHistory",
      "outputs": [
        {
          "components": [
            {
              "internalType": "int256",
              "name": "points",
              "type": "int256"
            },
            {
              "internalType": "uint256",
              "name": "timestamp",
              "type": "uint256"
            }
          ],
          "internalType": "struct PointHub.PointRecord[]",
          "name": "",
          "type": "tuple[]"
        }
      ],
      "stateMutability": "view",
      "type": "function"
    },
    {
      "inputs": [],
      "name": "getUserId",
      "outputs": [
        {
          "internalType": "bool",
          "name": "",
          "type": "bool"
        }
      ],
      "stateMutability": "view",
      "type": "function"
    },
    {
      "inputs": [
        {
          "internalType": "uint256",
          "name": "userId",
          "type": "uint256"
        }
      ],
      "name": "getUserProfile",
      "outputs": [
        {
          "internalType": "uint256",
          "name": "registeredAt",
          "type": "uint256"
        },
        {
          "internalType": "int256",
          "name": "currentPoints",
          "type": "int256"
        },
        {
          "internalType": "int256",
          "name": "totalPointsEarned",
          "type": "int256"
        },
        {
          "internalType": "uint256[]",
          "name": "createdRepoIds",
          "type": "uint256[]"
        },
        {
          "internalType": "uint256[]",
          "name": "contributedRepoIds",
          "type": "uint256[]"
        }
      ],
      "stateMutability": "view",
      "type": "function"
    },
    {
      "inputs": [],
      "name": "nextRepoId",
      "outputs": [
        {
          "internalType": "uint256",
          "name": "",
          "type": "uint256"
        }
      ],
      "stateMutability": "view",
      "type": "function"
    },
    {
      "inputs": [],
      "name": "nextUserId",
      "outputs": [
        {
          "internalType": "uint256",
          "name": "",
          "type": "uint256"
        }
      ],
      "stateMutability": "view",
      "type": "function"
    }
  ],
  "bytecode": "0x6080604052600160005560018055348015601857600080fd5b50611bdb806100286000396000f3fe608060405234801561001057600080fd5b50600436106100ea5760003560e01c80636a91d5cc1161008c5780638969b22f116100665780638969b22f1461022d578063a1e6a2551461025d578063b5e84e651461027b578063b5ffbbcc146102af576100ea565b80636a91d5cc146101d75780637d98adaf146101f55780638796f91114610211576100ea565b80632bbc04ce116100c85780632bbc04ce146101615780632cbc26891461017d5780632ebcb6531461019b57806351734fc5146101b9576100ea565b80631f52b76c146100ef57806325ad91ce14610123578063275851651461012d575b600080fd5b610109600480360381019061010491906111e7565b6102df565b60405161011a9594939291906112fa565b60405180910390f35b61012b610430565b005b6101476004803603810190610142919061135b565b610565565b60405161015895949392919061139b565b60405180910390f35b61017b600480360381019061017691906113ee565b61060c565b005b6101856108af565b6040516101929190611441565b60405180910390f35b6101a36109e2565b6040516101b0919061147e565b60405180910390f35b6101c1610a32565b6040516101ce9190611499565b60405180910390f35b6101df610a38565b6040516101ec9190611441565b60405180910390f35b61020f600480360381019061020a91906113ee565b610b6b565b005b61022b600480360381019061022691906113ee565b610e18565b005b6102476004803603810190610242919061135b565b61104c565b60405161025491906115a1565b60405180910390f35b6102656110e7565b6040516102729190611499565b60405180910390f35b6102956004803603810190610290919061135b565b6110ed565b6040516102a695949392919061139b565b60405180910390f35b6102c960048036038101906102c49190611621565b611194565b6040516102d69190611499565b60405180910390f35b60008060006060806002600087815260200190815260200160002060000160009054906101000a900460ff1661034a576040517f08c379a0000000000000000000000000000000000000000000000000000000008152600401610341906116ab565b60405180910390fd5b60006002600088815260200190815260200160002090508060010154816002015482600301548360070184600801818054806020026020016040519081016040528092919081815260200182805480156103c357602002820191906000526020600020905b8154815260200190600101908083116103af575b505050505091508080548060200260200160405190810160405280929190818152602001828054801561041557602002820191906000526020600020905b815481526020019060010190808311610401575b50505050509050955095509550955095505091939590929450565b6000600360003373ffffffffffffffffffffffffffffffffffffffff1673ffffffffffffffffffffffffffffffffffffffff16815260200190815260200160002054146104b2576040517f08c379a00000000000000000000000000000000000000000000000000000000081526004016104a990611717565b60405180910390fd5b60008060008154809291906104c690611766565b91905055905080600360003373ffffffffffffffffffffffffffffffffffffffff1673ffffffffffffffffffffffffffffffffffffffff16815260200190815260200160002081905550600060026000838152602001908152602001600020905060018160000160006101000a81548160ff02191690831515021790555042816001018190555060648160020181905550606481600301819055505050565b600080600080600080600260008981526020019081526020016000206004016000888152602001908152602001600020905060008160020154036105de576040517f08c379a00000000000000000000000000000000000000000000000000000000081526004016105d5906117fa565b60405180910390fd5b8060000154816001015482600201548360030154846004015495509550955095509550509295509295909350565b6000600360003373ffffffffffffffffffffffffffffffffffffffff1673ffffffffffffffffffffffffffffffffffffffff168152602001908152602001600020540361068e576040517f08c379a000000000000000000000000000000000000000000000000000000000815260040161068590611866565b60405180910390fd5b6002600084815260200190815260200160002060000160009054906101000a900460ff166106f1576040517f08c379a00000000000000000000000000000000000000000000000000000000081526004016106e8906118d2565b60405180910390fd5b6000600360003373ffffffffffffffffffffffffffffffffffffffff1673ffffffffffffffffffffffffffffffffffffffff1681526020019081526020016000205490506000600260008381526020019081526020016000206004016000858152602001908152602001600020905060008160020154036107a7576040517f08c379a000000000000000000000000000000000000000000000000000000000815260040161079e9061193e565b60405180910390fd5b6000600260008781526020019081526020016000209050838160020160008282546107d2919061195e565b92505081905550838160030160008282546107ed919061195e565b925050819055508060060160008681526020019081526020016000206040518060400160405280868152602001428152509080600181540180825580915050600190039060005260206000209060020201600090919091909150600082015181600001556020820151816001015550508382600401600082825461087191906119a2565b925050819055508381600501600087815260200190815260200160002060040160008282546108a091906119a2565b92505081905550505050505050565b60606000600360003373ffffffffffffffffffffffffffffffffffffffff1673ffffffffffffffffffffffffffffffffffffffff1681526020019081526020016000205403610933576040517f08c379a000000000000000000000000000000000000000000000000000000000815260040161092a90611866565b60405180910390fd5b6000600360003373ffffffffffffffffffffffffffffffffffffffff1673ffffffffffffffffffffffffffffffffffffffff168152602001908152602001600020549050600260008281526020019081526020016000206008018054806020026020016040519081016040528092919081815260200182805480156109d757602002820191906000526020600020905b8154815260200190600101908083116109c3575b505050505091505090565b600080600360003373ffffffffffffffffffffffffffffffffffffffff1673ffffffffffffffffffffffffffffffffffffffff168152602001908152602001600020549050600081141591505090565b60015481565b60606000600360003373ffffffffffffffffffffffffffffffffffffffff1673ffffffffffffffffffffffffffffffffffffffff1681526020019081526020016000205403610abc576040517f08c379a0000000000000000000000000000000000000000000000000000000008152600401610ab390611866565b60405180910390fd5b6000600360003373ffffffffffffffffffffffffffffffffffffffff1673ffffffffffffffffffffffffffffffffffffffff16815260200190815260200160002054905060026000828152602001908152602001600020600701805480602002602001604051908101604052809291908181526020018280548015610b6057602002820191906000526020600020905b815481526020019060010190808311610b4c575b505050505091505090565b6000600360003373ffffffffffffffffffffffffffffffffffffffff1673ffffffffffffffffffffffffffffffffffffffff1681526020019081526020016000205403610bed576040517f08c379a0000000000000000000000000000000000000000000000000000000008152600401610be490611866565b60405180910390fd5b6002600084815260200190815260200160002060000160009054906101000a900460ff16610c50576040517f08c379a0000000000000000000000000000000000000000000000000000000008152600401610c4790611a22565b60405180910390fd5b600060026000858152602001908152602001600020600401600084815260200190815260200160002090506000816002015403610cc2576040517f08c379a0000000000000000000000000000000000000000000000000000000008152600401610cb9906117fa565b60405180910390fd5b6000600360003373ffffffffffffffffffffffffffffffffffffffff1673ffffffffffffffffffffffffffffffffffffffff168152602001908152602001600020549050600060026000838152602001908152602001600020905060008160050160008781526020019081526020016000206002015403610de0576040518060a00160405280846000015481526020018581526020014281526020016000815260200160008152508160050160008781526020019081526020016000206000820151816000015560208201518160010155604082015181600201556060820151816003015560808201518160040155905050806008018590806001815401808255809150506001900390600052602060002001600090919091909150555b60018160050160008781526020019081526020016000206003016000828254610e0991906119a2565b92505081905550505050505050565b6000600360003373ffffffffffffffffffffffffffffffffffffffff1673ffffffffffffffffffffffffffffffffffffffff1681526020019081526020016000205403610e9a576040517f08c379a0000000000000000000000000000000000000000000000000000000008152600401610e9190611866565b60405180910390fd5b6000600360003373ffffffffffffffffffffffffffffffffffffffff1673ffffffffffffffffffffffffffffffffffffffff16815260200190815260200160002054905060006002600083815260200190815260200160002090508281600201541215610f3c576040517f08c379a0000000000000000000000000000000000000000000000000000000008152600401610f3390611a8e565b60405180910390fd5b82816002016000828254610f509190611aae565b92505081905550600060016000815480929190610f6c90611766565b9190505590506000826004016000838152602001908152602001600020905086816000018190555085816001018190555042816002018190555082600701829080600181540180825580915050600190039060005260206000200160009091909190915055826006016000838152602001908152602001600020604051806040016040528087610ffb90611af1565b81526020014281525090806001815401808255809150506001900390600052602060002090600202016000909190919091506000820151816000015560208201518160010155505050505050505050565b6060600260008481526020019081526020016000206006016000838152602001908152602001600020805480602002602001604051908101604052809291908181526020016000905b828210156110db57838290600052602060002090600202016040518060400160405290816000820154815260200160018201548152505081526020019060010190611095565b50505050905092915050565b60005481565b60008060008060008060026000898152602001908152602001600020600501600088815260200190815260200160002090506000816002015403611166576040517f08c379a000000000000000000000000000000000000000000000000000000000815260040161115d90611b85565b60405180910390fd5b8060000154816001015482600201548360030154846004015495509550955095509550509295509295909350565b60036020528060005260406000206000915090505481565b600080fd5b6000819050919050565b6111c4816111b1565b81146111cf57600080fd5b50565b6000813590506111e1816111bb565b92915050565b6000602082840312156111fd576111fc6111ac565b5b600061120b848285016111d2565b91505092915050565b61121d816111b1565b82525050565b6000819050919050565b61123681611223565b82525050565b600081519050919050565b600082825260208201905092915050565b6000819050602082019050919050565b611271816111b1565b82525050565b60006112838383611268565b60208301905092915050565b6000602082019050919050565b60006112a78261123c565b6112b18185611247565b93506112bc83611258565b8060005b838110156112ed5781516112d48882611277565b97506112df8361128f565b9250506001810190506112c0565b5085935050505092915050565b600060a08201905061130f6000830188611214565b61131c602083018761122d565b611329604083018661122d565b818103606083015261133b818561129c565b9050818103608083015261134f818461129c565b90509695505050505050565b60008060408385031215611372576113716111ac565b5b6000611380858286016111d2565b9250506020611391858286016111d2565b9150509250929050565b600060a0820190506113b06000830188611214565b6113bd6020830187611214565b6113ca6040830186611214565b6113d76060830185611214565b6113e46080830184611214565b9695505050505050565b600080600060608486031215611407576114066111ac565b5b6000611415868287016111d2565b9350506020611426868287016111d2565b9250506040611437868287016111d2565b9150509250925092565b6000602082019050818103600083015261145b818461129c565b905092915050565b60008115159050919050565b61147881611463565b82525050565b6000602082019050611493600083018461146f565b92915050565b60006020820190506114ae6000830184611214565b92915050565b600081519050919050565b600082825260208201905092915050565b6000819050602082019050919050565b6114e981611223565b82525050565b60408201600082015161150560008501826114e0565b5060208201516115186020850182611268565b50505050565b600061152a83836114ef565b60408301905092915050565b6000602082019050919050565b600061154e826114b4565b61155881856114bf565b9350611563836114d0565b8060005b8381101561159457815161157b888261151e565b975061158683611536565b925050600181019050611567565b5085935050505092915050565b600060208201905081810360008301526115bb8184611543565b905092915050565b600073ffffffffffffffffffffffffffffffffffffffff82169050919050565b60006115ee826115c3565b9050919050565b6115fe816115e3565b811461160957600080fd5b50565b60008135905061161b816115f5565b92915050565b600060208284031215611637576116366111ac565b5b60006116458482850161160c565b91505092915050565b600082825260208201905092915050565b7f5573657220646f6573206e6f7420657869737400000000000000000000000000600082015250565b600061169560138361164e565b91506116a08261165f565b602082019050919050565b600060208201905081810360008301526116c481611688565b9050919050565b7f416c726561647920726567697374657265640000000000000000000000000000600082015250565b600061170160128361164e565b915061170c826116cb565b602082019050919050565b60006020820190508181036000830152611730816116f4565b9050919050565b7f4e487b7100000000000000000000000000000000000000000000000000000000600052601160045260246000fd5b6000611771826111b1565b91507fffffffffffffffffffffffffffffffffffffffffffffffffffffffffffffffff82036117a3576117a2611737565b5b600182019050919050565b7f5265706f206e6f7420666f756e64000000000000000000000000000000000000600082015250565b60006117e4600e8361164e565b91506117ef826117ae565b602082019050919050565b60006020820190508181036000830152611813816117d7565b9050919050565b7f4e6f742072656769737465726564000000000000000000000000000000000000600082015250565b6000611850600e8361164e565b915061185b8261181a565b602082019050919050565b6000602082019050818103600083015261187f81611843565b9050919050565b7f436f6e7472696275746f7220646f6573206e6f74206578697374000000000000600082015250565b60006118bc601a8361164e565b91506118c782611886565b602082019050919050565b600060208201905081810360008301526118eb816118af565b9050919050565b7f4e6f7420796f7572207265706f00000000000000000000000000000000000000600082015250565b6000611928600d8361164e565b9150611933826118f2565b602082019050919050565b600060208201905081810360008301526119578161191b565b9050919050565b600061196982611223565b915061197483611223565b92508282019050828112156000831216838212600084121516171561199c5761199b611737565b5b92915050565b60006119ad826111b1565b91506119b8836111b1565b92508282019050808211156119d0576119cf611737565b5b92915050565b7f4f776e6572207573657220646f6573206e6f7420657869737400000000000000600082015250565b6000611a0c60198361164e565b9150611a17826119d6565b602082019050919050565b60006020820190508181036000830152611a3b816119ff565b9050919050565b7f496e73756666696369656e7420706f696e747300000000000000000000000000600082015250565b6000611a7860138361164e565b9150611a8382611a42565b602082019050919050565b60006020820190508181036000830152611aa781611a6b565b9050919050565b6000611ab982611223565b9150611ac483611223565b9250828203905081811260008412168282136000851215161715611aeb57611aea611737565b5b92915050565b6000611afc82611223565b91507f80000000000000000000000000000000000000000000000000000000000000008203611b2e57611b2d611737565b5b816000039050919050565b7f4e6f20636f6e747269627574696f6e7320666f756e6400000000000000000000600082015250565b6000611b6f60168361164e565b9150611b7a82611b39565b602082019050919050565b60006020820190508181036000830152611b9e81611b62565b905091905056fea2646970667358221220657ff7f8289b621a56efcab20f2360120b8da913835d27e8aba8cf99a745cf8764736f6c634300081c0033",
  "linkReferences": {},
  "deployedLinkReferences": {}
}